{
	"vote.sol": {
		"vote": {
			"abi": [
				{
					"inputs": [],
					"stateMutability": "nonpayable",
					"type": "constructor"
				},
				{
					"inputs": [],
					"name": "checkVoteCount",
					"outputs": [
						{
							"internalType": "uint256[3]",
							"name": "",
							"type": "uint256[3]"
						}
					],
					"stateMutability": "view",
					"type": "function"
				},
				{
					"inputs": [],
					"name": "owner",
					"outputs": [
						{
							"internalType": "address",
							"name": "",
							"type": "address"
						}
					],
					"stateMutability": "view",
					"type": "function"
				},
				{
					"inputs": [],
					"name": "resultVote",
					"outputs": [
						{
							"internalType": "uint256[3]",
							"name": "",
							"type": "uint256[3]"
						}
					],
					"stateMutability": "nonpayable",
					"type": "function"
				},
				{
					"inputs": [
						{
							"internalType": "uint256",
							"name": "_num",
							"type": "uint256"
						}
					],
					"name": "toVote",
					"outputs": [],
					"stateMutability": "nonpayable",
					"type": "function"
				},
				{
					"inputs": [
						{
							"internalType": "uint256",
							"name": "",
							"type": "uint256"
						}
					],
					"name": "voteArray",
					"outputs": [
						{
							"internalType": "uint256",
							"name": "",
							"type": "uint256"
						}
					],
					"stateMutability": "view",
					"type": "function"
				}
			],
			"devdoc": {
				"kind": "dev",
				"methods": {},
				"version": 1
			},
			"evm": {
				"assembly": "    /* \"vote.sol\":60:1852  contract vote {\r... */\n  mstore(0x40, 0x80)\n    /* \"vote.sol\":194:233  uint256[3] public voteArray = [1, 2, 3] */\n  mload(0x40)\n  dup1\n  0x60\n  add\n  0x40\n  mstore\n  dup1\n    /* \"vote.sol\":225:226  1 */\n  0x01\n    /* \"vote.sol\":194:233  uint256[3] public voteArray = [1, 2, 3] */\n  0xff\n  and\n  dup2\n  mstore\n  0x20\n  add\n    /* \"vote.sol\":228:229  2 */\n  0x02\n    /* \"vote.sol\":194:233  uint256[3] public voteArray = [1, 2, 3] */\n  0xff\n  and\n  dup2\n  mstore\n  0x20\n  add\n    /* \"vote.sol\":231:232  3 */\n  0x03\n    /* \"vote.sol\":194:233  uint256[3] public voteArray = [1, 2, 3] */\n  0xff\n  and\n  dup2\n  mstore\n  pop\n  0x01\n  swap1\n  0x03\n  tag_1\n  swap3\n  swap2\n  swap1\n  tag_2\n  jump\t// in\ntag_1:\n  pop\n    /* \"vote.sol\":299:300  1 */\n  0x01\n    /* \"vote.sol\":272:300  uint256 private _initial = 1 */\n  0x07\n  sstore\n    /* \"vote.sol\":139:186  constructor() {\r... */\n  callvalue\n  dup1\n  iszero\n  tag_3\n  jumpi\n  0x00\n  dup1\n  revert\ntag_3:\n  pop\n    /* \"vote.sol\":172:182  msg.sender */\n  caller\n    /* \"vote.sol\":164:169  owner */\n  0x00\n  dup1\n    /* \"vote.sol\":164:182  owner = msg.sender */\n  0x0100\n  exp\n  dup2\n  sload\n  dup2\n  0xffffffffffffffffffffffffffffffffffffffff\n  mul\n  not\n  and\n  swap1\n  dup4\n  0xffffffffffffffffffffffffffffffffffffffff\n  and\n  mul\n  or\n  swap1\n  sstore\n  pop\n    /* \"vote.sol\":60:1852  contract vote {\r... */\n  jump(tag_6)\ntag_2:\n  dup3\n  0x03\n  dup2\n  add\n  swap3\n  dup3\n  iszero\n  tag_7\n  jumpi\n  swap2\n  0x20\n  mul\n  dup3\n  add\ntag_8:\n  dup3\n  dup2\n  gt\n  iszero\n  tag_9\n  jumpi\n  dup3\n  mload\n  dup3\n  swap1\n  0xff\n  and\n  swap1\n  sstore\n  swap2\n  0x20\n  add\n  swap2\n  swap1\n  0x01\n  add\n  swap1\n  jump(tag_8)\ntag_9:\ntag_7:\n  pop\n  swap1\n  pop\n  tag_10\n  swap2\n  swap1\n  tag_11\n  jump\t// in\ntag_10:\n  pop\n  swap1\n  jump\t// out\ntag_11:\ntag_12:\n  dup1\n  dup3\n  gt\n  iszero\n  tag_13\n  jumpi\n  0x00\n  dup2\n  0x00\n  swap1\n  sstore\n  pop\n  0x01\n  add\n  jump(tag_12)\ntag_13:\n  pop\n  swap1\n  jump\t// out\ntag_6:\n  dataSize(sub_0)\n  dup1\n  dataOffset(sub_0)\n  0x00\n  codecopy\n  0x00\n  return\nstop\n\nsub_0: assembly {\n        /* \"vote.sol\":60:1852  contract vote {\r... */\n      mstore(0x40, 0x80)\n      callvalue\n      dup1\n      iszero\n      tag_1\n      jumpi\n      0x00\n      dup1\n      revert\n    tag_1:\n      pop\n      jumpi(tag_2, lt(calldatasize, 0x04))\n      shr(0xe0, calldataload(0x00))\n      dup1\n      0x8da5cb5b\n      eq\n      tag_3\n      jumpi\n      dup1\n      0xa1cec4ca\n      eq\n      tag_4\n      jumpi\n      dup1\n      0xb520c9a5\n      eq\n      tag_5\n      jumpi\n      dup1\n      0xdb46e82b\n      eq\n      tag_6\n      jumpi\n      dup1\n      0xfbfadb11\n      eq\n      tag_7\n      jumpi\n    tag_2:\n      0x00\n      dup1\n      revert\n        /* \"vote.sol\":83:103  address public owner */\n    tag_3:\n      tag_8\n      tag_9\n      jump\t// in\n    tag_8:\n      mload(0x40)\n      tag_10\n      swap2\n      swap1\n      tag_11\n      jump\t// in\n    tag_10:\n      mload(0x40)\n      dup1\n      swap2\n      sub\n      swap1\n      return\n        /* \"vote.sol\":660:1047  function toVote(uint256 _num) public {\r... */\n    tag_4:\n      tag_12\n      0x04\n      dup1\n      calldatasize\n      sub\n      dup2\n      add\n      swap1\n      tag_13\n      swap2\n      swap1\n      tag_14\n      jump\t// in\n    tag_13:\n      tag_15\n      jump\t// in\n    tag_12:\n      stop\n        /* \"vote.sol\":1092:1265  function checkVoteCount() public view onlyOwner returns(uint256[3] memory) {\r... */\n    tag_5:\n      tag_16\n      tag_17\n      jump\t// in\n    tag_16:\n      mload(0x40)\n      tag_18\n      swap2\n      swap1\n      tag_19\n      jump\t// in\n    tag_18:\n      mload(0x40)\n      dup1\n      swap2\n      sub\n      swap1\n      return\n        /* \"vote.sol\":194:233  uint256[3] public voteArray = [1, 2, 3] */\n    tag_6:\n      tag_20\n      0x04\n      dup1\n      calldatasize\n      sub\n      dup2\n      add\n      swap1\n      tag_21\n      swap2\n      swap1\n      tag_14\n      jump\t// in\n    tag_21:\n      tag_22\n      jump\t// in\n    tag_20:\n      mload(0x40)\n      tag_23\n      swap2\n      swap1\n      tag_24\n      jump\t// in\n    tag_23:\n      mload(0x40)\n      dup1\n      swap2\n      sub\n      swap1\n      return\n        /* \"vote.sol\":1312:1548  function resultVote() public onlyOwner returns(uint256[3] memory) {\r... */\n    tag_7:\n      tag_25\n      tag_26\n      jump\t// in\n    tag_25:\n      mload(0x40)\n      tag_27\n      swap2\n      swap1\n      tag_19\n      jump\t// in\n    tag_27:\n      mload(0x40)\n      dup1\n      swap2\n      sub\n      swap1\n      return\n        /* \"vote.sol\":83:103  address public owner */\n    tag_9:\n      0x00\n      dup1\n      sload\n      swap1\n      0x0100\n      exp\n      swap1\n      div\n      0xffffffffffffffffffffffffffffffffffffffff\n      and\n      dup2\n      jump\t// out\n        /* \"vote.sol\":660:1047  function toVote(uint256 _num) public {\r... */\n    tag_15:\n        /* \"vote.sol\":746:747  0 */\n      0x00\n        /* \"vote.sol\":716:720  vnum */\n      0x08\n        /* \"vote.sol\":716:730  vnum[_initial] */\n      0x00\n        /* \"vote.sol\":721:729  _initial */\n      sload(0x07)\n        /* \"vote.sol\":716:730  vnum[_initial] */\n      dup2\n      mstore\n      0x20\n      add\n      swap1\n      dup2\n      mstore\n      0x20\n      add\n      0x00\n      keccak256\n        /* \"vote.sol\":716:742  vnum[_initial][msg.sender] */\n      0x00\n        /* \"vote.sol\":731:741  msg.sender */\n      caller\n        /* \"vote.sol\":716:742  vnum[_initial][msg.sender] */\n      0xffffffffffffffffffffffffffffffffffffffff\n      and\n      0xffffffffffffffffffffffffffffffffffffffff\n      and\n      dup2\n      mstore\n      0x20\n      add\n      swap1\n      dup2\n      mstore\n      0x20\n      add\n      0x00\n      keccak256\n      sload\n        /* \"vote.sol\":716:747  vnum[_initial][msg.sender] == 0 */\n      eq\n        /* \"vote.sol\":708:768  require(vnum[_initial][msg.sender] == 0, \"you already vote\") */\n      tag_29\n      jumpi\n      mload(0x40)\n      0x08c379a000000000000000000000000000000000000000000000000000000000\n      dup2\n      mstore\n      0x04\n      add\n      tag_30\n      swap1\n      tag_31\n      jump\t// in\n    tag_30:\n      mload(0x40)\n      dup1\n      swap2\n      sub\n      swap1\n      revert\n    tag_29:\n        /* \"vote.sol\":787:804  isvalidVote(_num) */\n      tag_32\n        /* \"vote.sol\":799:803  _num */\n      dup2\n        /* \"vote.sol\":787:798  isvalidVote */\n      tag_33\n        /* \"vote.sol\":787:804  isvalidVote(_num) */\n      jump\t// in\n    tag_32:\n        /* \"vote.sol\":779:829  require(isvalidVote(_num), \"you can vote 1, 2, 3\") */\n      tag_34\n      jumpi\n      mload(0x40)\n      0x08c379a000000000000000000000000000000000000000000000000000000000\n      dup2\n      mstore\n      0x04\n      add\n      tag_35\n      swap1\n      tag_36\n      jump\t// in\n    tag_35:\n      mload(0x40)\n      dup1\n      swap2\n      sub\n      swap1\n      revert\n    tag_34:\n        /* \"vote.sol\":869:873  _num */\n      dup1\n        /* \"vote.sol\":840:844  vnum */\n      0x08\n        /* \"vote.sol\":840:854  vnum[_initial] */\n      0x00\n        /* \"vote.sol\":845:853  _initial */\n      sload(0x07)\n        /* \"vote.sol\":840:854  vnum[_initial] */\n      dup2\n      mstore\n      0x20\n      add\n      swap1\n      dup2\n      mstore\n      0x20\n      add\n      0x00\n      keccak256\n        /* \"vote.sol\":840:866  vnum[_initial][msg.sender] */\n      0x00\n        /* \"vote.sol\":855:865  msg.sender */\n      caller\n        /* \"vote.sol\":840:866  vnum[_initial][msg.sender] */\n      0xffffffffffffffffffffffffffffffffffffffff\n      and\n      0xffffffffffffffffffffffffffffffffffffffff\n      and\n      dup2\n      mstore\n      0x20\n      add\n      swap1\n      dup2\n      mstore\n      0x20\n      add\n      0x00\n      keccak256\n        /* \"vote.sol\":840:873  vnum[_initial][msg.sender] = _num */\n      dup2\n      swap1\n      sstore\n      pop\n        /* \"vote.sol\":884:890  vcount */\n      0x09\n        /* \"vote.sol\":884:900  vcount[_initial] */\n      0x00\n        /* \"vote.sol\":891:899  _initial */\n      sload(0x07)\n        /* \"vote.sol\":884:900  vcount[_initial] */\n      dup2\n      mstore\n      0x20\n      add\n      swap1\n      dup2\n      mstore\n      0x20\n      add\n      0x00\n      keccak256\n        /* \"vote.sol\":884:906  vcount[_initial][_num] */\n      0x00\n        /* \"vote.sol\":901:905  _num */\n      dup3\n        /* \"vote.sol\":884:906  vcount[_initial][_num] */\n      dup2\n      mstore\n      0x20\n      add\n      swap1\n      dup2\n      mstore\n      0x20\n      add\n      0x00\n      keccak256\n      0x00\n        /* \"vote.sol\":884:908  vcount[_initial][_num]++ */\n      dup2\n      sload\n      dup1\n      swap3\n      swap2\n      swap1\n      tag_37\n      swap1\n      tag_38\n      jump\t// in\n    tag_37:\n      swap2\n      swap1\n      pop\n      sstore\n      pop\n        /* \"vote.sol\":923:932  uint256 i */\n      0x00\n        /* \"vote.sol\":919:1040  for(uint256 i = 0; i < voteCountArray.length; i++) {\r... */\n    tag_39:\n        /* \"vote.sol\":942:963  voteCountArray.length */\n      0x03\n        /* \"vote.sol\":938:939  i */\n      dup2\n        /* \"vote.sol\":938:963  i < voteCountArray.length */\n      lt\n        /* \"vote.sol\":919:1040  for(uint256 i = 0; i < voteCountArray.length; i++) {\r... */\n      iszero\n      tag_40\n      jumpi\n        /* \"vote.sol\":1005:1011  vcount */\n      0x09\n        /* \"vote.sol\":1005:1021  vcount[_initial] */\n      0x00\n        /* \"vote.sol\":1012:1020  _initial */\n      sload(0x07)\n        /* \"vote.sol\":1005:1021  vcount[_initial] */\n      dup2\n      mstore\n      0x20\n      add\n      swap1\n      dup2\n      mstore\n      0x20\n      add\n      0x00\n      keccak256\n        /* \"vote.sol\":1005:1028  vcount[_initial][i + 1] */\n      0x00\n        /* \"vote.sol\":1026:1027  1 */\n      0x01\n        /* \"vote.sol\":1022:1023  i */\n      dup4\n        /* \"vote.sol\":1022:1027  i + 1 */\n      tag_42\n      swap2\n      swap1\n      tag_43\n      jump\t// in\n    tag_42:\n        /* \"vote.sol\":1005:1028  vcount[_initial][i + 1] */\n      dup2\n      mstore\n      0x20\n      add\n      swap1\n      dup2\n      mstore\n      0x20\n      add\n      0x00\n      keccak256\n      sload\n        /* \"vote.sol\":985:999  voteCountArray */\n      0x04\n        /* \"vote.sol\":1000:1001  i */\n      dup3\n        /* \"vote.sol\":985:1002  voteCountArray[i] */\n      0x03\n      dup2\n      lt\n      tag_44\n      jumpi\n      tag_45\n      tag_46\n      jump\t// in\n    tag_45:\n    tag_44:\n      add\n        /* \"vote.sol\":985:1028  voteCountArray[i] = vcount[_initial][i + 1] */\n      dup2\n      swap1\n      sstore\n      pop\n        /* \"vote.sol\":965:968  i++ */\n      dup1\n      dup1\n      tag_48\n      swap1\n      tag_38\n      jump\t// in\n    tag_48:\n      swap2\n      pop\n      pop\n        /* \"vote.sol\":919:1040  for(uint256 i = 0; i < voteCountArray.length; i++) {\r... */\n      jump(tag_39)\n    tag_40:\n      pop\n        /* \"vote.sol\":660:1047  function toVote(uint256 _num) public {\r... */\n      pop\n      jump\t// out\n        /* \"vote.sol\":1092:1265  function checkVoteCount() public view onlyOwner returns(uint256[3] memory) {\r... */\n    tag_17:\n        /* \"vote.sol\":1148:1165  uint256[3] memory */\n      tag_49\n      tag_50\n      jump\t// in\n    tag_49:\n        /* \"vote.sol\":585:590  owner */\n      0x00\n      dup1\n      sload\n      swap1\n      0x0100\n      exp\n      swap1\n      div\n      0xffffffffffffffffffffffffffffffffffffffff\n      and\n        /* \"vote.sol\":571:590  msg.sender == owner */\n      0xffffffffffffffffffffffffffffffffffffffff\n      and\n        /* \"vote.sol\":571:581  msg.sender */\n      caller\n        /* \"vote.sol\":571:590  msg.sender == owner */\n      0xffffffffffffffffffffffffffffffffffffffff\n      and\n      eq\n        /* \"vote.sol\":563:610  require(msg.sender == owner, \"using onlyonwer\") */\n      tag_52\n      jumpi\n      mload(0x40)\n      0x08c379a000000000000000000000000000000000000000000000000000000000\n      dup2\n      mstore\n      0x04\n      add\n      tag_53\n      swap1\n      tag_54\n      jump\t// in\n    tag_53:\n      mload(0x40)\n      dup1\n      swap2\n      sub\n      swap1\n      revert\n    tag_52:\n        /* \"vote.sol\":1200:1205  owner */\n      0x00\n      dup1\n      sload\n      swap1\n      0x0100\n      exp\n      swap1\n      div\n      0xffffffffffffffffffffffffffffffffffffffff\n      and\n        /* \"vote.sol\":1186:1205  msg.sender == owner */\n      0xffffffffffffffffffffffffffffffffffffffff\n      and\n        /* \"vote.sol\":1186:1196  msg.sender */\n      caller\n        /* \"vote.sol\":1186:1205  msg.sender == owner */\n      0xffffffffffffffffffffffffffffffffffffffff\n      and\n      eq\n        /* \"vote.sol\":1178:1225  require(msg.sender == owner, \"using onlyonwer\") */\n      tag_56\n      jumpi\n      mload(0x40)\n      0x08c379a000000000000000000000000000000000000000000000000000000000\n      dup2\n      mstore\n      0x04\n      add\n      tag_57\n      swap1\n      tag_54\n      jump\t// in\n    tag_57:\n      mload(0x40)\n      dup1\n      swap2\n      sub\n      swap1\n      revert\n    tag_56:\n        /* \"vote.sol\":1243:1257  voteCountArray */\n      0x04\n        /* \"vote.sol\":1236:1257  return voteCountArray */\n      0x03\n      dup1\n      0x20\n      mul\n      mload(0x40)\n      swap1\n      dup2\n      add\n      0x40\n      mstore\n      dup1\n      swap3\n      swap2\n      swap1\n      dup3\n      0x03\n      dup1\n      iszero\n      tag_58\n      jumpi\n      0x20\n      mul\n      dup3\n      add\n      swap2\n    tag_59:\n      dup2\n      sload\n      dup2\n      mstore\n      0x20\n      add\n      swap1\n      0x01\n      add\n      swap1\n      dup1\n      dup4\n      gt\n      tag_59\n      jumpi\n    tag_58:\n      pop\n      pop\n      pop\n      pop\n      pop\n      swap1\n      pop\n        /* \"vote.sol\":1092:1265  function checkVoteCount() public view onlyOwner returns(uint256[3] memory) {\r... */\n      swap1\n      jump\t// out\n        /* \"vote.sol\":194:233  uint256[3] public voteArray = [1, 2, 3] */\n    tag_22:\n      0x01\n      dup2\n      0x03\n      dup2\n      lt\n      tag_60\n      jumpi\n      0x00\n      dup1\n      revert\n    tag_60:\n      add\n      0x00\n      swap2\n      pop\n      swap1\n      pop\n      sload\n      dup2\n      jump\t// out\n        /* \"vote.sol\":1312:1548  function resultVote() public onlyOwner returns(uint256[3] memory) {\r... */\n    tag_26:\n        /* \"vote.sol\":1359:1376  uint256[3] memory */\n      tag_62\n      tag_50\n      jump\t// in\n    tag_62:\n        /* \"vote.sol\":585:590  owner */\n      0x00\n      dup1\n      sload\n      swap1\n      0x0100\n      exp\n      swap1\n      div\n      0xffffffffffffffffffffffffffffffffffffffff\n      and\n        /* \"vote.sol\":571:590  msg.sender == owner */\n      0xffffffffffffffffffffffffffffffffffffffff\n      and\n        /* \"vote.sol\":571:581  msg.sender */\n      caller\n        /* \"vote.sol\":571:590  msg.sender == owner */\n      0xffffffffffffffffffffffffffffffffffffffff\n      and\n      eq\n        /* \"vote.sol\":563:610  require(msg.sender == owner, \"using onlyonwer\") */\n      tag_64\n      jumpi\n      mload(0x40)\n      0x08c379a000000000000000000000000000000000000000000000000000000000\n      dup2\n      mstore\n      0x04\n      add\n      tag_65\n      swap1\n      tag_54\n      jump\t// in\n    tag_65:\n      mload(0x40)\n      dup1\n      swap2\n      sub\n      swap1\n      revert\n    tag_64:\n        /* \"vote.sol\":1389:1397  _initial */\n      0x07\n      0x00\n        /* \"vote.sol\":1389:1399  _initial++ */\n      dup2\n      sload\n      dup1\n      swap3\n      swap2\n      swap1\n      tag_67\n      swap1\n      tag_38\n      jump\t// in\n    tag_67:\n      swap2\n      swap1\n      pop\n      sstore\n      pop\n        /* \"vote.sol\":1414:1423  uint256 i */\n      0x00\n        /* \"vote.sol\":1410:1509  for(uint256 i = 0; i < voteCountArray.length; i++) {\r... */\n    tag_68:\n        /* \"vote.sol\":1433:1454  voteCountArray.length */\n      0x03\n        /* \"vote.sol\":1429:1430  i */\n      dup2\n        /* \"vote.sol\":1429:1454  i < voteCountArray.length */\n      lt\n        /* \"vote.sol\":1410:1509  for(uint256 i = 0; i < voteCountArray.length; i++) {\r... */\n      iszero\n      tag_69\n      jumpi\n        /* \"vote.sol\":1496:1497  0 */\n      0x00\n        /* \"vote.sol\":1476:1490  voteCountArray */\n      0x04\n        /* \"vote.sol\":1491:1492  i */\n      dup3\n        /* \"vote.sol\":1476:1493  voteCountArray[i] */\n      0x03\n      dup2\n      lt\n      tag_71\n      jumpi\n      tag_72\n      tag_46\n      jump\t// in\n    tag_72:\n    tag_71:\n      add\n        /* \"vote.sol\":1476:1497  voteCountArray[i] = 0 */\n      dup2\n      swap1\n      sstore\n      pop\n        /* \"vote.sol\":1456:1459  i++ */\n      dup1\n      dup1\n      tag_74\n      swap1\n      tag_38\n      jump\t// in\n    tag_74:\n      swap2\n      pop\n      pop\n        /* \"vote.sol\":1410:1509  for(uint256 i = 0; i < voteCountArray.length; i++) {\r... */\n      jump(tag_68)\n    tag_69:\n      pop\n        /* \"vote.sol\":1526:1540  voteCountArray */\n      0x04\n        /* \"vote.sol\":1519:1540  return voteCountArray */\n      0x03\n      dup1\n      0x20\n      mul\n      mload(0x40)\n      swap1\n      dup2\n      add\n      0x40\n      mstore\n      dup1\n      swap3\n      swap2\n      swap1\n      dup3\n      0x03\n      dup1\n      iszero\n      tag_75\n      jumpi\n      0x20\n      mul\n      dup3\n      add\n      swap2\n    tag_76:\n      dup2\n      sload\n      dup2\n      mstore\n      0x20\n      add\n      swap1\n      0x01\n      add\n      swap1\n      dup1\n      dup4\n      gt\n      tag_76\n      jumpi\n    tag_75:\n      pop\n      pop\n      pop\n      pop\n      pop\n      swap1\n      pop\n        /* \"vote.sol\":1312:1548  function resultVote() public onlyOwner returns(uint256[3] memory) {\r... */\n      swap1\n      jump\t// out\n        /* \"vote.sol\":1597:1849  function isvalidVote(uint256 _num) internal view returns(bool) {\r... */\n    tag_33:\n        /* \"vote.sol\":1654:1658  bool */\n      0x00\n        /* \"vote.sol\":1675:1684  uint256 i */\n      dup1\n        /* \"vote.sol\":1687:1688  0 */\n      0x00\n        /* \"vote.sol\":1675:1688  uint256 i = 0 */\n      swap1\n      pop\n        /* \"vote.sol\":1671:1815  for(uint256 i = 0; i < voteArray.length; i++) {\r... */\n    tag_78:\n        /* \"vote.sol\":1694:1710  voteArray.length */\n      0x03\n        /* \"vote.sol\":1690:1691  i */\n      dup2\n        /* \"vote.sol\":1690:1710  i < voteArray.length */\n      lt\n        /* \"vote.sol\":1671:1815  for(uint256 i = 0; i < voteArray.length; i++) {\r... */\n      iszero\n      tag_79\n      jumpi\n        /* \"vote.sol\":1751:1755  _num */\n      dup3\n        /* \"vote.sol\":1735:1744  voteArray */\n      0x01\n        /* \"vote.sol\":1745:1746  i */\n      dup3\n        /* \"vote.sol\":1735:1747  voteArray[i] */\n      0x03\n      dup2\n      lt\n      tag_81\n      jumpi\n      tag_82\n      tag_46\n      jump\t// in\n    tag_82:\n    tag_81:\n      add\n      sload\n        /* \"vote.sol\":1735:1755  voteArray[i] == _num */\n      eq\n        /* \"vote.sol\":1732:1803  if(voteArray[i] == _num) {\r... */\n      iszero\n      tag_84\n      jumpi\n        /* \"vote.sol\":1783:1787  true */\n      0x01\n        /* \"vote.sol\":1776:1787  return true */\n      swap2\n      pop\n      pop\n      jump(tag_77)\n        /* \"vote.sol\":1732:1803  if(voteArray[i] == _num) {\r... */\n    tag_84:\n        /* \"vote.sol\":1712:1715  i++ */\n      dup1\n      dup1\n      tag_85\n      swap1\n      tag_38\n      jump\t// in\n    tag_85:\n      swap2\n      pop\n      pop\n        /* \"vote.sol\":1671:1815  for(uint256 i = 0; i < voteArray.length; i++) {\r... */\n      jump(tag_78)\n    tag_79:\n      pop\n        /* \"vote.sol\":1836:1841  false */\n      0x00\n        /* \"vote.sol\":1829:1841  return false */\n      swap1\n      pop\n        /* \"vote.sol\":1597:1849  function isvalidVote(uint256 _num) internal view returns(bool) {\r... */\n    tag_77:\n      swap2\n      swap1\n      pop\n      jump\t// out\n    tag_50:\n      mload(0x40)\n      dup1\n      0x60\n      add\n      0x40\n      mstore\n      dup1\n      0x03\n      swap1\n      0x20\n      dup3\n      mul\n      dup1\n      calldatasize\n      dup4\n      calldatacopy\n      dup1\n      dup3\n      add\n      swap2\n      pop\n      pop\n      swap1\n      pop\n      pop\n      swap1\n      jump\t// out\n        /* \"#utility.yul\":7:146   */\n    tag_87:\n        /* \"#utility.yul\":53:58   */\n      0x00\n        /* \"#utility.yul\":91:97   */\n      dup2\n        /* \"#utility.yul\":78:98   */\n      calldataload\n        /* \"#utility.yul\":69:98   */\n      swap1\n      pop\n        /* \"#utility.yul\":107:140   */\n      tag_89\n        /* \"#utility.yul\":134:139   */\n      dup2\n        /* \"#utility.yul\":107:140   */\n      tag_90\n      jump\t// in\n    tag_89:\n        /* \"#utility.yul\":7:146   */\n      swap3\n      swap2\n      pop\n      pop\n      jump\t// out\n        /* \"#utility.yul\":152:481   */\n    tag_14:\n        /* \"#utility.yul\":211:217   */\n      0x00\n        /* \"#utility.yul\":260:262   */\n      0x20\n        /* \"#utility.yul\":248:257   */\n      dup3\n        /* \"#utility.yul\":239:246   */\n      dup5\n        /* \"#utility.yul\":235:258   */\n      sub\n        /* \"#utility.yul\":231:263   */\n      slt\n        /* \"#utility.yul\":228:347   */\n      iszero\n      tag_92\n      jumpi\n        /* \"#utility.yul\":266:345   */\n      tag_93\n      tag_94\n      jump\t// in\n    tag_93:\n        /* \"#utility.yul\":228:347   */\n    tag_92:\n        /* \"#utility.yul\":386:387   */\n      0x00\n        /* \"#utility.yul\":411:464   */\n      tag_95\n        /* \"#utility.yul\":456:463   */\n      dup5\n        /* \"#utility.yul\":447:453   */\n      dup3\n        /* \"#utility.yul\":436:445   */\n      dup6\n        /* \"#utility.yul\":432:454   */\n      add\n        /* \"#utility.yul\":411:464   */\n      tag_87\n      jump\t// in\n    tag_95:\n        /* \"#utility.yul\":401:464   */\n      swap2\n      pop\n        /* \"#utility.yul\":357:474   */\n      pop\n        /* \"#utility.yul\":152:481   */\n      swap3\n      swap2\n      pop\n      pop\n      jump\t// out\n        /* \"#utility.yul\":487:666   */\n    tag_96:\n        /* \"#utility.yul\":556:566   */\n      0x00\n        /* \"#utility.yul\":577:623   */\n      tag_98\n        /* \"#utility.yul\":619:622   */\n      dup4\n        /* \"#utility.yul\":611:617   */\n      dup4\n        /* \"#utility.yul\":577:623   */\n      tag_99\n      jump\t// in\n    tag_98:\n        /* \"#utility.yul\":655:659   */\n      0x20\n        /* \"#utility.yul\":650:653   */\n      dup4\n        /* \"#utility.yul\":646:660   */\n      add\n        /* \"#utility.yul\":632:660   */\n      swap1\n      pop\n        /* \"#utility.yul\":487:666   */\n      swap3\n      swap2\n      pop\n      pop\n      jump\t// out\n        /* \"#utility.yul\":672:790   */\n    tag_100:\n        /* \"#utility.yul\":759:783   */\n      tag_102\n        /* \"#utility.yul\":777:782   */\n      dup2\n        /* \"#utility.yul\":759:783   */\n      tag_103\n      jump\t// in\n    tag_102:\n        /* \"#utility.yul\":754:757   */\n      dup3\n        /* \"#utility.yul\":747:784   */\n      mstore\n        /* \"#utility.yul\":672:790   */\n      pop\n      pop\n      jump\t// out\n        /* \"#utility.yul\":828:1522   */\n    tag_104:\n        /* \"#utility.yul\":964:1016   */\n      tag_106\n        /* \"#utility.yul\":1010:1015   */\n      dup2\n        /* \"#utility.yul\":964:1016   */\n      tag_107\n      jump\t// in\n    tag_106:\n        /* \"#utility.yul\":1032:1116   */\n      tag_108\n        /* \"#utility.yul\":1109:1115   */\n      dup2\n        /* \"#utility.yul\":1104:1107   */\n      dup5\n        /* \"#utility.yul\":1032:1116   */\n      tag_109\n      jump\t// in\n    tag_108:\n        /* \"#utility.yul\":1025:1116   */\n      swap3\n      pop\n        /* \"#utility.yul\":1140:1194   */\n      tag_110\n        /* \"#utility.yul\":1188:1193   */\n      dup3\n        /* \"#utility.yul\":1140:1194   */\n      tag_111\n      jump\t// in\n    tag_110:\n        /* \"#utility.yul\":1217:1224   */\n      dup1\n        /* \"#utility.yul\":1248:1249   */\n      0x00\n        /* \"#utility.yul\":1233:1515   */\n    tag_112:\n        /* \"#utility.yul\":1258:1264   */\n      dup4\n        /* \"#utility.yul\":1255:1256   */\n      dup2\n        /* \"#utility.yul\":1252:1265   */\n      lt\n        /* \"#utility.yul\":1233:1515   */\n      iszero\n      tag_114\n      jumpi\n        /* \"#utility.yul\":1334:1340   */\n      dup2\n        /* \"#utility.yul\":1328:1341   */\n      mload\n        /* \"#utility.yul\":1361:1424   */\n      tag_115\n        /* \"#utility.yul\":1420:1423   */\n      dup8\n        /* \"#utility.yul\":1405:1418   */\n      dup3\n        /* \"#utility.yul\":1361:1424   */\n      tag_96\n      jump\t// in\n    tag_115:\n        /* \"#utility.yul\":1354:1424   */\n      swap7\n      pop\n        /* \"#utility.yul\":1447:1505   */\n      tag_116\n        /* \"#utility.yul\":1498:1504   */\n      dup4\n        /* \"#utility.yul\":1447:1505   */\n      tag_117\n      jump\t// in\n    tag_116:\n        /* \"#utility.yul\":1437:1505   */\n      swap3\n      pop\n        /* \"#utility.yul\":1293:1515   */\n      pop\n        /* \"#utility.yul\":1280:1281   */\n      0x01\n        /* \"#utility.yul\":1277:1278   */\n      dup2\n        /* \"#utility.yul\":1273:1282   */\n      add\n        /* \"#utility.yul\":1268:1282   */\n      swap1\n      pop\n        /* \"#utility.yul\":1233:1515   */\n      jump(tag_112)\n    tag_114:\n        /* \"#utility.yul\":1237:1251   */\n      pop\n        /* \"#utility.yul\":940:1522   */\n      pop\n      pop\n      pop\n        /* \"#utility.yul\":828:1522   */\n      pop\n      pop\n      jump\t// out\n        /* \"#utility.yul\":1528:1894   */\n    tag_118:\n        /* \"#utility.yul\":1670:1673   */\n      0x00\n        /* \"#utility.yul\":1691:1758   */\n      tag_120\n        /* \"#utility.yul\":1755:1757   */\n      0x0f\n        /* \"#utility.yul\":1750:1753   */\n      dup4\n        /* \"#utility.yul\":1691:1758   */\n      tag_121\n      jump\t// in\n    tag_120:\n        /* \"#utility.yul\":1684:1758   */\n      swap2\n      pop\n        /* \"#utility.yul\":1767:1860   */\n      tag_122\n        /* \"#utility.yul\":1856:1859   */\n      dup3\n        /* \"#utility.yul\":1767:1860   */\n      tag_123\n      jump\t// in\n    tag_122:\n        /* \"#utility.yul\":1885:1887   */\n      0x20\n        /* \"#utility.yul\":1880:1883   */\n      dup3\n        /* \"#utility.yul\":1876:1888   */\n      add\n        /* \"#utility.yul\":1869:1888   */\n      swap1\n      pop\n        /* \"#utility.yul\":1528:1894   */\n      swap2\n      swap1\n      pop\n      jump\t// out\n        /* \"#utility.yul\":1900:2266   */\n    tag_124:\n        /* \"#utility.yul\":2042:2045   */\n      0x00\n        /* \"#utility.yul\":2063:2130   */\n      tag_126\n        /* \"#utility.yul\":2127:2129   */\n      0x10\n        /* \"#utility.yul\":2122:2125   */\n      dup4\n        /* \"#utility.yul\":2063:2130   */\n      tag_121\n      jump\t// in\n    tag_126:\n        /* \"#utility.yul\":2056:2130   */\n      swap2\n      pop\n        /* \"#utility.yul\":2139:2232   */\n      tag_127\n        /* \"#utility.yul\":2228:2231   */\n      dup3\n        /* \"#utility.yul\":2139:2232   */\n      tag_128\n      jump\t// in\n    tag_127:\n        /* \"#utility.yul\":2257:2259   */\n      0x20\n        /* \"#utility.yul\":2252:2255   */\n      dup3\n        /* \"#utility.yul\":2248:2260   */\n      add\n        /* \"#utility.yul\":2241:2260   */\n      swap1\n      pop\n        /* \"#utility.yul\":1900:2266   */\n      swap2\n      swap1\n      pop\n      jump\t// out\n        /* \"#utility.yul\":2272:2638   */\n    tag_129:\n        /* \"#utility.yul\":2414:2417   */\n      0x00\n        /* \"#utility.yul\":2435:2502   */\n      tag_131\n        /* \"#utility.yul\":2499:2501   */\n      0x14\n        /* \"#utility.yul\":2494:2497   */\n      dup4\n        /* \"#utility.yul\":2435:2502   */\n      tag_121\n      jump\t// in\n    tag_131:\n        /* \"#utility.yul\":2428:2502   */\n      swap2\n      pop\n        /* \"#utility.yul\":2511:2604   */\n      tag_132\n        /* \"#utility.yul\":2600:2603   */\n      dup3\n        /* \"#utility.yul\":2511:2604   */\n      tag_133\n      jump\t// in\n    tag_132:\n        /* \"#utility.yul\":2629:2631   */\n      0x20\n        /* \"#utility.yul\":2624:2627   */\n      dup3\n        /* \"#utility.yul\":2620:2632   */\n      add\n        /* \"#utility.yul\":2613:2632   */\n      swap1\n      pop\n        /* \"#utility.yul\":2272:2638   */\n      swap2\n      swap1\n      pop\n      jump\t// out\n        /* \"#utility.yul\":2644:2752   */\n    tag_99:\n        /* \"#utility.yul\":2721:2745   */\n      tag_135\n        /* \"#utility.yul\":2739:2744   */\n      dup2\n        /* \"#utility.yul\":2721:2745   */\n      tag_136\n      jump\t// in\n    tag_135:\n        /* \"#utility.yul\":2716:2719   */\n      dup3\n        /* \"#utility.yul\":2709:2746   */\n      mstore\n        /* \"#utility.yul\":2644:2752   */\n      pop\n      pop\n      jump\t// out\n        /* \"#utility.yul\":2758:2876   */\n    tag_137:\n        /* \"#utility.yul\":2845:2869   */\n      tag_139\n        /* \"#utility.yul\":2863:2868   */\n      dup2\n        /* \"#utility.yul\":2845:2869   */\n      tag_136\n      jump\t// in\n    tag_139:\n        /* \"#utility.yul\":2840:2843   */\n      dup3\n        /* \"#utility.yul\":2833:2870   */\n      mstore\n        /* \"#utility.yul\":2758:2876   */\n      pop\n      pop\n      jump\t// out\n        /* \"#utility.yul\":2882:3104   */\n    tag_11:\n        /* \"#utility.yul\":2975:2979   */\n      0x00\n        /* \"#utility.yul\":3013:3015   */\n      0x20\n        /* \"#utility.yul\":3002:3011   */\n      dup3\n        /* \"#utility.yul\":2998:3016   */\n      add\n        /* \"#utility.yul\":2990:3016   */\n      swap1\n      pop\n        /* \"#utility.yul\":3026:3097   */\n      tag_141\n        /* \"#utility.yul\":3094:3095   */\n      0x00\n        /* \"#utility.yul\":3083:3092   */\n      dup4\n        /* \"#utility.yul\":3079:3096   */\n      add\n        /* \"#utility.yul\":3070:3076   */\n      dup5\n        /* \"#utility.yul\":3026:3097   */\n      tag_100\n      jump\t// in\n    tag_141:\n        /* \"#utility.yul\":2882:3104   */\n      swap3\n      swap2\n      pop\n      pop\n      jump\t// out\n        /* \"#utility.yul\":3110:3424   */\n    tag_19:\n        /* \"#utility.yul\":3249:3253   */\n      0x00\n        /* \"#utility.yul\":3287:3289   */\n      0x60\n        /* \"#utility.yul\":3276:3285   */\n      dup3\n        /* \"#utility.yul\":3272:3290   */\n      add\n        /* \"#utility.yul\":3264:3290   */\n      swap1\n      pop\n        /* \"#utility.yul\":3300:3417   */\n      tag_143\n        /* \"#utility.yul\":3414:3415   */\n      0x00\n        /* \"#utility.yul\":3403:3412   */\n      dup4\n        /* \"#utility.yul\":3399:3416   */\n      add\n        /* \"#utility.yul\":3390:3396   */\n      dup5\n        /* \"#utility.yul\":3300:3417   */\n      tag_104\n      jump\t// in\n    tag_143:\n        /* \"#utility.yul\":3110:3424   */\n      swap3\n      swap2\n      pop\n      pop\n      jump\t// out\n        /* \"#utility.yul\":3430:3849   */\n    tag_54:\n        /* \"#utility.yul\":3596:3600   */\n      0x00\n        /* \"#utility.yul\":3634:3636   */\n      0x20\n        /* \"#utility.yul\":3623:3632   */\n      dup3\n        /* \"#utility.yul\":3619:3637   */\n      add\n        /* \"#utility.yul\":3611:3637   */\n      swap1\n      pop\n        /* \"#utility.yul\":3683:3692   */\n      dup2\n        /* \"#utility.yul\":3677:3681   */\n      dup2\n        /* \"#utility.yul\":3673:3693   */\n      sub\n        /* \"#utility.yul\":3669:3670   */\n      0x00\n        /* \"#utility.yul\":3658:3667   */\n      dup4\n        /* \"#utility.yul\":3654:3671   */\n      add\n        /* \"#utility.yul\":3647:3694   */\n      mstore\n        /* \"#utility.yul\":3711:3842   */\n      tag_145\n        /* \"#utility.yul\":3837:3841   */\n      dup2\n        /* \"#utility.yul\":3711:3842   */\n      tag_118\n      jump\t// in\n    tag_145:\n        /* \"#utility.yul\":3703:3842   */\n      swap1\n      pop\n        /* \"#utility.yul\":3430:3849   */\n      swap2\n      swap1\n      pop\n      jump\t// out\n        /* \"#utility.yul\":3855:4274   */\n    tag_31:\n        /* \"#utility.yul\":4021:4025   */\n      0x00\n        /* \"#utility.yul\":4059:4061   */\n      0x20\n        /* \"#utility.yul\":4048:4057   */\n      dup3\n        /* \"#utility.yul\":4044:4062   */\n      add\n        /* \"#utility.yul\":4036:4062   */\n      swap1\n      pop\n        /* \"#utility.yul\":4108:4117   */\n      dup2\n        /* \"#utility.yul\":4102:4106   */\n      dup2\n        /* \"#utility.yul\":4098:4118   */\n      sub\n        /* \"#utility.yul\":4094:4095   */\n      0x00\n        /* \"#utility.yul\":4083:4092   */\n      dup4\n        /* \"#utility.yul\":4079:4096   */\n      add\n        /* \"#utility.yul\":4072:4119   */\n      mstore\n        /* \"#utility.yul\":4136:4267   */\n      tag_147\n        /* \"#utility.yul\":4262:4266   */\n      dup2\n        /* \"#utility.yul\":4136:4267   */\n      tag_124\n      jump\t// in\n    tag_147:\n        /* \"#utility.yul\":4128:4267   */\n      swap1\n      pop\n        /* \"#utility.yul\":3855:4274   */\n      swap2\n      swap1\n      pop\n      jump\t// out\n        /* \"#utility.yul\":4280:4699   */\n    tag_36:\n        /* \"#utility.yul\":4446:4450   */\n      0x00\n        /* \"#utility.yul\":4484:4486   */\n      0x20\n        /* \"#utility.yul\":4473:4482   */\n      dup3\n        /* \"#utility.yul\":4469:4487   */\n      add\n        /* \"#utility.yul\":4461:4487   */\n      swap1\n      pop\n        /* \"#utility.yul\":4533:4542   */\n      dup2\n        /* \"#utility.yul\":4527:4531   */\n      dup2\n        /* \"#utility.yul\":4523:4543   */\n      sub\n        /* \"#utility.yul\":4519:4520   */\n      0x00\n        /* \"#utility.yul\":4508:4517   */\n      dup4\n        /* \"#utility.yul\":4504:4521   */\n      add\n        /* \"#utility.yul\":4497:4544   */\n      mstore\n        /* \"#utility.yul\":4561:4692   */\n      tag_149\n        /* \"#utility.yul\":4687:4691   */\n      dup2\n        /* \"#utility.yul\":4561:4692   */\n      tag_129\n      jump\t// in\n    tag_149:\n        /* \"#utility.yul\":4553:4692   */\n      swap1\n      pop\n        /* \"#utility.yul\":4280:4699   */\n      swap2\n      swap1\n      pop\n      jump\t// out\n        /* \"#utility.yul\":4705:4927   */\n    tag_24:\n        /* \"#utility.yul\":4798:4802   */\n      0x00\n        /* \"#utility.yul\":4836:4838   */\n      0x20\n        /* \"#utility.yul\":4825:4834   */\n      dup3\n        /* \"#utility.yul\":4821:4839   */\n      add\n        /* \"#utility.yul\":4813:4839   */\n      swap1\n      pop\n        /* \"#utility.yul\":4849:4920   */\n      tag_151\n        /* \"#utility.yul\":4917:4918   */\n      0x00\n        /* \"#utility.yul\":4906:4915   */\n      dup4\n        /* \"#utility.yul\":4902:4919   */\n      add\n        /* \"#utility.yul\":4893:4899   */\n      dup5\n        /* \"#utility.yul\":4849:4920   */\n      tag_137\n      jump\t// in\n    tag_151:\n        /* \"#utility.yul\":4705:4927   */\n      swap3\n      swap2\n      pop\n      pop\n      jump\t// out\n        /* \"#utility.yul\":5014:5112   */\n    tag_111:\n        /* \"#utility.yul\":5079:5083   */\n      0x00\n        /* \"#utility.yul\":5102:5105   */\n      dup2\n        /* \"#utility.yul\":5094:5105   */\n      swap1\n      pop\n        /* \"#utility.yul\":5014:5112   */\n      swap2\n      swap1\n      pop\n      jump\t// out\n        /* \"#utility.yul\":5118:5222   */\n    tag_107:\n        /* \"#utility.yul\":5183:5189   */\n      0x00\n        /* \"#utility.yul\":5211:5215   */\n      0x03\n        /* \"#utility.yul\":5201:5215   */\n      swap1\n      pop\n        /* \"#utility.yul\":5118:5222   */\n      swap2\n      swap1\n      pop\n      jump\t// out\n        /* \"#utility.yul\":5228:5339   */\n    tag_117:\n        /* \"#utility.yul\":5296:5300   */\n      0x00\n        /* \"#utility.yul\":5328:5332   */\n      0x20\n        /* \"#utility.yul\":5323:5326   */\n      dup3\n        /* \"#utility.yul\":5319:5333   */\n      add\n        /* \"#utility.yul\":5311:5333   */\n      swap1\n      pop\n        /* \"#utility.yul\":5228:5339   */\n      swap2\n      swap1\n      pop\n      jump\t// out\n        /* \"#utility.yul\":5345:5488   */\n    tag_109:\n        /* \"#utility.yul\":5442:5453   */\n      0x00\n        /* \"#utility.yul\":5479:5482   */\n      dup2\n        /* \"#utility.yul\":5464:5482   */\n      swap1\n      pop\n        /* \"#utility.yul\":5345:5488   */\n      swap3\n      swap2\n      pop\n      pop\n      jump\t// out\n        /* \"#utility.yul\":5494:5663   */\n    tag_121:\n        /* \"#utility.yul\":5578:5589   */\n      0x00\n        /* \"#utility.yul\":5612:5618   */\n      dup3\n        /* \"#utility.yul\":5607:5610   */\n      dup3\n        /* \"#utility.yul\":5600:5619   */\n      mstore\n        /* \"#utility.yul\":5652:5656   */\n      0x20\n        /* \"#utility.yul\":5647:5650   */\n      dup3\n        /* \"#utility.yul\":5643:5657   */\n      add\n        /* \"#utility.yul\":5628:5657   */\n      swap1\n      pop\n        /* \"#utility.yul\":5494:5663   */\n      swap3\n      swap2\n      pop\n      pop\n      jump\t// out\n        /* \"#utility.yul\":5669:5974   */\n    tag_43:\n        /* \"#utility.yul\":5709:5712   */\n      0x00\n        /* \"#utility.yul\":5728:5748   */\n      tag_160\n        /* \"#utility.yul\":5746:5747   */\n      dup3\n        /* \"#utility.yul\":5728:5748   */\n      tag_136\n      jump\t// in\n    tag_160:\n        /* \"#utility.yul\":5723:5748   */\n      swap2\n      pop\n        /* \"#utility.yul\":5762:5782   */\n      tag_161\n        /* \"#utility.yul\":5780:5781   */\n      dup4\n        /* \"#utility.yul\":5762:5782   */\n      tag_136\n      jump\t// in\n    tag_161:\n        /* \"#utility.yul\":5757:5782   */\n      swap3\n      pop\n        /* \"#utility.yul\":5916:5917   */\n      dup3\n        /* \"#utility.yul\":5848:5914   */\n      0xffffffffffffffffffffffffffffffffffffffffffffffffffffffffffffffff\n        /* \"#utility.yul\":5844:5918   */\n      sub\n        /* \"#utility.yul\":5841:5842   */\n      dup3\n        /* \"#utility.yul\":5838:5919   */\n      gt\n        /* \"#utility.yul\":5835:5942   */\n      iszero\n      tag_162\n      jumpi\n        /* \"#utility.yul\":5922:5940   */\n      tag_163\n      tag_164\n      jump\t// in\n    tag_163:\n        /* \"#utility.yul\":5835:5942   */\n    tag_162:\n        /* \"#utility.yul\":5966:5967   */\n      dup3\n        /* \"#utility.yul\":5963:5964   */\n      dup3\n        /* \"#utility.yul\":5959:5968   */\n      add\n        /* \"#utility.yul\":5952:5968   */\n      swap1\n      pop\n        /* \"#utility.yul\":5669:5974   */\n      swap3\n      swap2\n      pop\n      pop\n      jump\t// out\n        /* \"#utility.yul\":5980:6076   */\n    tag_103:\n        /* \"#utility.yul\":6017:6024   */\n      0x00\n        /* \"#utility.yul\":6046:6070   */\n      tag_166\n        /* \"#utility.yul\":6064:6069   */\n      dup3\n        /* \"#utility.yul\":6046:6070   */\n      tag_167\n      jump\t// in\n    tag_166:\n        /* \"#utility.yul\":6035:6070   */\n      swap1\n      pop\n        /* \"#utility.yul\":5980:6076   */\n      swap2\n      swap1\n      pop\n      jump\t// out\n        /* \"#utility.yul\":6082:6208   */\n    tag_167:\n        /* \"#utility.yul\":6119:6126   */\n      0x00\n        /* \"#utility.yul\":6159:6201   */\n      0xffffffffffffffffffffffffffffffffffffffff\n        /* \"#utility.yul\":6152:6157   */\n      dup3\n        /* \"#utility.yul\":6148:6202   */\n      and\n        /* \"#utility.yul\":6137:6202   */\n      swap1\n      pop\n        /* \"#utility.yul\":6082:6208   */\n      swap2\n      swap1\n      pop\n      jump\t// out\n        /* \"#utility.yul\":6214:6291   */\n    tag_136:\n        /* \"#utility.yul\":6251:6258   */\n      0x00\n        /* \"#utility.yul\":6280:6285   */\n      dup2\n        /* \"#utility.yul\":6269:6285   */\n      swap1\n      pop\n        /* \"#utility.yul\":6214:6291   */\n      swap2\n      swap1\n      pop\n      jump\t// out\n        /* \"#utility.yul\":6297:6530   */\n    tag_38:\n        /* \"#utility.yul\":6336:6339   */\n      0x00\n        /* \"#utility.yul\":6359:6383   */\n      tag_171\n        /* \"#utility.yul\":6377:6382   */\n      dup3\n        /* \"#utility.yul\":6359:6383   */\n      tag_136\n      jump\t// in\n    tag_171:\n        /* \"#utility.yul\":6350:6383   */\n      swap2\n      pop\n        /* \"#utility.yul\":6405:6471   */\n      0xffffffffffffffffffffffffffffffffffffffffffffffffffffffffffffffff\n        /* \"#utility.yul\":6398:6403   */\n      dup3\n        /* \"#utility.yul\":6395:6472   */\n      eq\n        /* \"#utility.yul\":6392:6495   */\n      iszero\n      tag_172\n      jumpi\n        /* \"#utility.yul\":6475:6493   */\n      tag_173\n      tag_164\n      jump\t// in\n    tag_173:\n        /* \"#utility.yul\":6392:6495   */\n    tag_172:\n        /* \"#utility.yul\":6522:6523   */\n      0x01\n        /* \"#utility.yul\":6515:6520   */\n      dup3\n        /* \"#utility.yul\":6511:6524   */\n      add\n        /* \"#utility.yul\":6504:6524   */\n      swap1\n      pop\n        /* \"#utility.yul\":6297:6530   */\n      swap2\n      swap1\n      pop\n      jump\t// out\n        /* \"#utility.yul\":6536:6716   */\n    tag_164:\n        /* \"#utility.yul\":6584:6661   */\n      0x4e487b7100000000000000000000000000000000000000000000000000000000\n        /* \"#utility.yul\":6581:6582   */\n      0x00\n        /* \"#utility.yul\":6574:6662   */\n      mstore\n        /* \"#utility.yul\":6681:6685   */\n      0x11\n        /* \"#utility.yul\":6678:6679   */\n      0x04\n        /* \"#utility.yul\":6671:6686   */\n      mstore\n        /* \"#utility.yul\":6705:6709   */\n      0x24\n        /* \"#utility.yul\":6702:6703   */\n      0x00\n        /* \"#utility.yul\":6695:6710   */\n      revert\n        /* \"#utility.yul\":6722:6902   */\n    tag_46:\n        /* \"#utility.yul\":6770:6847   */\n      0x4e487b7100000000000000000000000000000000000000000000000000000000\n        /* \"#utility.yul\":6767:6768   */\n      0x00\n        /* \"#utility.yul\":6760:6848   */\n      mstore\n        /* \"#utility.yul\":6867:6871   */\n      0x32\n        /* \"#utility.yul\":6864:6865   */\n      0x04\n        /* \"#utility.yul\":6857:6872   */\n      mstore\n        /* \"#utility.yul\":6891:6895   */\n      0x24\n        /* \"#utility.yul\":6888:6889   */\n      0x00\n        /* \"#utility.yul\":6881:6896   */\n      revert\n        /* \"#utility.yul\":7031:7148   */\n    tag_94:\n        /* \"#utility.yul\":7140:7141   */\n      0x00\n        /* \"#utility.yul\":7137:7138   */\n      dup1\n        /* \"#utility.yul\":7130:7142   */\n      revert\n        /* \"#utility.yul\":7154:7319   */\n    tag_123:\n        /* \"#utility.yul\":7294:7311   */\n      0x7573696e67206f6e6c796f6e7765720000000000000000000000000000000000\n        /* \"#utility.yul\":7290:7291   */\n      0x00\n        /* \"#utility.yul\":7282:7288   */\n      dup3\n        /* \"#utility.yul\":7278:7292   */\n      add\n        /* \"#utility.yul\":7271:7312   */\n      mstore\n        /* \"#utility.yul\":7154:7319   */\n      pop\n      jump\t// out\n        /* \"#utility.yul\":7325:7491   */\n    tag_128:\n        /* \"#utility.yul\":7465:7483   */\n      0x796f7520616c726561647920766f746500000000000000000000000000000000\n        /* \"#utility.yul\":7461:7462   */\n      0x00\n        /* \"#utility.yul\":7453:7459   */\n      dup3\n        /* \"#utility.yul\":7449:7463   */\n      add\n        /* \"#utility.yul\":7442:7484   */\n      mstore\n        /* \"#utility.yul\":7325:7491   */\n      pop\n      jump\t// out\n        /* \"#utility.yul\":7497:7667   */\n    tag_133:\n        /* \"#utility.yul\":7637:7659   */\n      0x796f752063616e20766f746520312c20322c2033000000000000000000000000\n        /* \"#utility.yul\":7633:7634   */\n      0x00\n        /* \"#utility.yul\":7625:7631   */\n      dup3\n        /* \"#utility.yul\":7621:7635   */\n      add\n        /* \"#utility.yul\":7614:7660   */\n      mstore\n        /* \"#utility.yul\":7497:7667   */\n      pop\n      jump\t// out\n        /* \"#utility.yul\":7673:7795   */\n    tag_90:\n        /* \"#utility.yul\":7746:7770   */\n      tag_183\n        /* \"#utility.yul\":7764:7769   */\n      dup2\n        /* \"#utility.yul\":7746:7770   */\n      tag_136\n      jump\t// in\n    tag_183:\n        /* \"#utility.yul\":7739:7744   */\n      dup2\n        /* \"#utility.yul\":7736:7771   */\n      eq\n        /* \"#utility.yul\":7726:7789   */\n      tag_184\n      jumpi\n        /* \"#utility.yul\":7785:7786   */\n      0x00\n        /* \"#utility.yul\":7782:7783   */\n      dup1\n        /* \"#utility.yul\":7775:7787   */\n      revert\n        /* \"#utility.yul\":7726:7789   */\n    tag_184:\n        /* \"#utility.yul\":7673:7795   */\n      pop\n      jump\t// out\n\n    auxdata: 0xa264697066735822122028c08a574bbc1877b17bba5fe68ac0ec19dba6762546f29a28d06481b65bca7464736f6c63430008070033\n}\n",
				"bytecode": {
					"linkReferences": {},
					"object": "60806040526040518060600160405280600160ff168152602001600260ff168152602001600360ff16815250600190600361003b929190610093565b50600160075534801561004d57600080fd5b50336000806101000a81548173ffffffffffffffffffffffffffffffffffffffff021916908373ffffffffffffffffffffffffffffffffffffffff1602179055506100f5565b82600381019282156100c7579160200282015b828111156100c6578251829060ff169055916020019190600101906100a6565b5b5090506100d491906100d8565b5090565b5b808211156100f15760008160009055506001016100d9565b5090565b610a67806101046000396000f3fe608060405234801561001057600080fd5b50600436106100575760003560e01c80638da5cb5b1461005c578063a1cec4ca1461007a578063b520c9a514610096578063db46e82b146100b4578063fbfadb11146100e4575b600080fd5b610064610102565b6040516100719190610772565b60405180910390f35b610094600480360381019061008f9190610640565b610126565b005b61009e610305565b6040516100ab919061078d565b60405180910390f35b6100ce60048036038101906100c99190610640565b61046c565b6040516100db9190610808565b60405180910390f35b6100ec610487565b6040516100f9919061078d565b60405180910390f35b60008054906101000a900473ffffffffffffffffffffffffffffffffffffffff1681565b600060086000600754815260200190815260200160002060003373ffffffffffffffffffffffffffffffffffffffff1673ffffffffffffffffffffffffffffffffffffffff16815260200190815260200160002054146101bb576040517f08c379a00000000000000000000000000000000000000000000000000000000081526004016101b2906107c8565b60405180910390fd5b6101c4816105b3565b610203576040517f08c379a00000000000000000000000000000000000000000000000000000000081526004016101fa906107e8565b60405180910390fd5b8060086000600754815260200190815260200160002060003373ffffffffffffffffffffffffffffffffffffffff1673ffffffffffffffffffffffffffffffffffffffff1681526020019081526020016000208190555060096000600754815260200190815260200160002060008281526020019081526020016000206000815480929190610291906108f3565b919050555060005b60038110156103015760096000600754815260200190815260200160002060006001836102c69190610861565b815260200190815260200160002054600482600381106102e9576102e861096b565b5b018190555080806102f9906108f3565b915050610299565b5050565b61030d610609565b60008054906101000a900473ffffffffffffffffffffffffffffffffffffffff1673ffffffffffffffffffffffffffffffffffffffff163373ffffffffffffffffffffffffffffffffffffffff161461039b576040517f08c379a0000000000000000000000000000000000000000000000000000000008152600401610392906107a8565b60405180910390fd5b60008054906101000a900473ffffffffffffffffffffffffffffffffffffffff1673ffffffffffffffffffffffffffffffffffffffff163373ffffffffffffffffffffffffffffffffffffffff1614610429576040517f08c379a0000000000000000000000000000000000000000000000000000000008152600401610420906107a8565b60405180910390fd5b6004600380602002604051908101604052809291908260038015610462576020028201915b81548152602001906001019080831161044e575b5050505050905090565b6001816003811061047c57600080fd5b016000915090505481565b61048f610609565b60008054906101000a900473ffffffffffffffffffffffffffffffffffffffff1673ffffffffffffffffffffffffffffffffffffffff163373ffffffffffffffffffffffffffffffffffffffff161461051d576040517f08c379a0000000000000000000000000000000000000000000000000000000008152600401610514906107a8565b60405180910390fd5b60076000815480929190610530906108f3565b919050555060005b600381101561056f576000600482600381106105575761055661096b565b5b01819055508080610567906108f3565b915050610538565b5060046003806020026040519081016040528092919082600380156105a9576020028201915b815481526020019060010190808311610595575b5050505050905090565b600080600090505b60038110156105fe5782600182600381106105d9576105d861096b565b5b015414156105eb576001915050610604565b80806105f6906108f3565b9150506105bb565b50600090505b919050565b6040518060600160405280600390602082028036833780820191505090505090565b60008135905061063a81610a1a565b92915050565b6000602082840312156106565761065561099a565b5b60006106648482850161062b565b91505092915050565b60006106798383610754565b60208301905092915050565b61068e816108b7565b82525050565b61069d8161082d565b6106a78184610845565b92506106b282610823565b8060005b838110156106e35781516106ca878261066d565b96506106d583610838565b9250506001810190506106b6565b505050505050565b60006106f8600f83610850565b91506107038261099f565b602082019050919050565b600061071b601083610850565b9150610726826109c8565b602082019050919050565b600061073e601483610850565b9150610749826109f1565b602082019050919050565b61075d816108e9565b82525050565b61076c816108e9565b82525050565b60006020820190506107876000830184610685565b92915050565b60006060820190506107a26000830184610694565b92915050565b600060208201905081810360008301526107c1816106eb565b9050919050565b600060208201905081810360008301526107e18161070e565b9050919050565b6000602082019050818103600083015261080181610731565b9050919050565b600060208201905061081d6000830184610763565b92915050565b6000819050919050565b600060039050919050565b6000602082019050919050565b600081905092915050565b600082825260208201905092915050565b600061086c826108e9565b9150610877836108e9565b9250827fffffffffffffffffffffffffffffffffffffffffffffffffffffffffffffffff038211156108ac576108ab61093c565b5b828201905092915050565b60006108c2826108c9565b9050919050565b600073ffffffffffffffffffffffffffffffffffffffff82169050919050565b6000819050919050565b60006108fe826108e9565b91507fffffffffffffffffffffffffffffffffffffffffffffffffffffffffffffffff8214156109315761093061093c565b5b600182019050919050565b7f4e487b7100000000000000000000000000000000000000000000000000000000600052601160045260246000fd5b7f4e487b7100000000000000000000000000000000000000000000000000000000600052603260045260246000fd5b600080fd5b7f7573696e67206f6e6c796f6e7765720000000000000000000000000000000000600082015250565b7f796f7520616c726561647920766f746500000000000000000000000000000000600082015250565b7f796f752063616e20766f746520312c20322c2033000000000000000000000000600082015250565b610a23816108e9565b8114610a2e57600080fd5b5056fea264697066735822122028c08a574bbc1877b17bba5fe68ac0ec19dba6762546f29a28d06481b65bca7464736f6c63430008070033",
					"opcodes": "PUSH1 0x80 PUSH1 0x40 MSTORE PUSH1 0x40 MLOAD DUP1 PUSH1 0x60 ADD PUSH1 0x40 MSTORE DUP1 PUSH1 0x1 PUSH1 0xFF AND DUP2 MSTORE PUSH1 0x20 ADD PUSH1 0x2 PUSH1 0xFF AND DUP2 MSTORE PUSH1 0x20 ADD PUSH1 0x3 PUSH1 0xFF AND DUP2 MSTORE POP PUSH1 0x1 SWAP1 PUSH1 0x3 PUSH2 0x3B SWAP3 SWAP2 SWAP1 PUSH2 0x93 JUMP JUMPDEST POP PUSH1 0x1 PUSH1 0x7 SSTORE CALLVALUE DUP1 ISZERO PUSH2 0x4D JUMPI PUSH1 0x0 DUP1 REVERT JUMPDEST POP CALLER PUSH1 0x0 DUP1 PUSH2 0x100 EXP DUP2 SLOAD DUP2 PUSH20 0xFFFFFFFFFFFFFFFFFFFFFFFFFFFFFFFFFFFFFFFF MUL NOT AND SWAP1 DUP4 PUSH20 0xFFFFFFFFFFFFFFFFFFFFFFFFFFFFFFFFFFFFFFFF AND MUL OR SWAP1 SSTORE POP PUSH2 0xF5 JUMP JUMPDEST DUP3 PUSH1 0x3 DUP2 ADD SWAP3 DUP3 ISZERO PUSH2 0xC7 JUMPI SWAP2 PUSH1 0x20 MUL DUP3 ADD JUMPDEST DUP3 DUP2 GT ISZERO PUSH2 0xC6 JUMPI DUP3 MLOAD DUP3 SWAP1 PUSH1 0xFF AND SWAP1 SSTORE SWAP2 PUSH1 0x20 ADD SWAP2 SWAP1 PUSH1 0x1 ADD SWAP1 PUSH2 0xA6 JUMP JUMPDEST JUMPDEST POP SWAP1 POP PUSH2 0xD4 SWAP2 SWAP1 PUSH2 0xD8 JUMP JUMPDEST POP SWAP1 JUMP JUMPDEST JUMPDEST DUP1 DUP3 GT ISZERO PUSH2 0xF1 JUMPI PUSH1 0x0 DUP2 PUSH1 0x0 SWAP1 SSTORE POP PUSH1 0x1 ADD PUSH2 0xD9 JUMP JUMPDEST POP SWAP1 JUMP JUMPDEST PUSH2 0xA67 DUP1 PUSH2 0x104 PUSH1 0x0 CODECOPY PUSH1 0x0 RETURN INVALID PUSH1 0x80 PUSH1 0x40 MSTORE CALLVALUE DUP1 ISZERO PUSH2 0x10 JUMPI PUSH1 0x0 DUP1 REVERT JUMPDEST POP PUSH1 0x4 CALLDATASIZE LT PUSH2 0x57 JUMPI PUSH1 0x0 CALLDATALOAD PUSH1 0xE0 SHR DUP1 PUSH4 0x8DA5CB5B EQ PUSH2 0x5C JUMPI DUP1 PUSH4 0xA1CEC4CA EQ PUSH2 0x7A JUMPI DUP1 PUSH4 0xB520C9A5 EQ PUSH2 0x96 JUMPI DUP1 PUSH4 0xDB46E82B EQ PUSH2 0xB4 JUMPI DUP1 PUSH4 0xFBFADB11 EQ PUSH2 0xE4 JUMPI JUMPDEST PUSH1 0x0 DUP1 REVERT JUMPDEST PUSH2 0x64 PUSH2 0x102 JUMP JUMPDEST PUSH1 0x40 MLOAD PUSH2 0x71 SWAP2 SWAP1 PUSH2 0x772 JUMP JUMPDEST PUSH1 0x40 MLOAD DUP1 SWAP2 SUB SWAP1 RETURN JUMPDEST PUSH2 0x94 PUSH1 0x4 DUP1 CALLDATASIZE SUB DUP2 ADD SWAP1 PUSH2 0x8F SWAP2 SWAP1 PUSH2 0x640 JUMP JUMPDEST PUSH2 0x126 JUMP JUMPDEST STOP JUMPDEST PUSH2 0x9E PUSH2 0x305 JUMP JUMPDEST PUSH1 0x40 MLOAD PUSH2 0xAB SWAP2 SWAP1 PUSH2 0x78D JUMP JUMPDEST PUSH1 0x40 MLOAD DUP1 SWAP2 SUB SWAP1 RETURN JUMPDEST PUSH2 0xCE PUSH1 0x4 DUP1 CALLDATASIZE SUB DUP2 ADD SWAP1 PUSH2 0xC9 SWAP2 SWAP1 PUSH2 0x640 JUMP JUMPDEST PUSH2 0x46C JUMP JUMPDEST PUSH1 0x40 MLOAD PUSH2 0xDB SWAP2 SWAP1 PUSH2 0x808 JUMP JUMPDEST PUSH1 0x40 MLOAD DUP1 SWAP2 SUB SWAP1 RETURN JUMPDEST PUSH2 0xEC PUSH2 0x487 JUMP JUMPDEST PUSH1 0x40 MLOAD PUSH2 0xF9 SWAP2 SWAP1 PUSH2 0x78D JUMP JUMPDEST PUSH1 0x40 MLOAD DUP1 SWAP2 SUB SWAP1 RETURN JUMPDEST PUSH1 0x0 DUP1 SLOAD SWAP1 PUSH2 0x100 EXP SWAP1 DIV PUSH20 0xFFFFFFFFFFFFFFFFFFFFFFFFFFFFFFFFFFFFFFFF AND DUP2 JUMP JUMPDEST PUSH1 0x0 PUSH1 0x8 PUSH1 0x0 PUSH1 0x7 SLOAD DUP2 MSTORE PUSH1 0x20 ADD SWAP1 DUP2 MSTORE PUSH1 0x20 ADD PUSH1 0x0 KECCAK256 PUSH1 0x0 CALLER PUSH20 0xFFFFFFFFFFFFFFFFFFFFFFFFFFFFFFFFFFFFFFFF AND PUSH20 0xFFFFFFFFFFFFFFFFFFFFFFFFFFFFFFFFFFFFFFFF AND DUP2 MSTORE PUSH1 0x20 ADD SWAP1 DUP2 MSTORE PUSH1 0x20 ADD PUSH1 0x0 KECCAK256 SLOAD EQ PUSH2 0x1BB JUMPI PUSH1 0x40 MLOAD PUSH32 0x8C379A000000000000000000000000000000000000000000000000000000000 DUP2 MSTORE PUSH1 0x4 ADD PUSH2 0x1B2 SWAP1 PUSH2 0x7C8 JUMP JUMPDEST PUSH1 0x40 MLOAD DUP1 SWAP2 SUB SWAP1 REVERT JUMPDEST PUSH2 0x1C4 DUP2 PUSH2 0x5B3 JUMP JUMPDEST PUSH2 0x203 JUMPI PUSH1 0x40 MLOAD PUSH32 0x8C379A000000000000000000000000000000000000000000000000000000000 DUP2 MSTORE PUSH1 0x4 ADD PUSH2 0x1FA SWAP1 PUSH2 0x7E8 JUMP JUMPDEST PUSH1 0x40 MLOAD DUP1 SWAP2 SUB SWAP1 REVERT JUMPDEST DUP1 PUSH1 0x8 PUSH1 0x0 PUSH1 0x7 SLOAD DUP2 MSTORE PUSH1 0x20 ADD SWAP1 DUP2 MSTORE PUSH1 0x20 ADD PUSH1 0x0 KECCAK256 PUSH1 0x0 CALLER PUSH20 0xFFFFFFFFFFFFFFFFFFFFFFFFFFFFFFFFFFFFFFFF AND PUSH20 0xFFFFFFFFFFFFFFFFFFFFFFFFFFFFFFFFFFFFFFFF AND DUP2 MSTORE PUSH1 0x20 ADD SWAP1 DUP2 MSTORE PUSH1 0x20 ADD PUSH1 0x0 KECCAK256 DUP2 SWAP1 SSTORE POP PUSH1 0x9 PUSH1 0x0 PUSH1 0x7 SLOAD DUP2 MSTORE PUSH1 0x20 ADD SWAP1 DUP2 MSTORE PUSH1 0x20 ADD PUSH1 0x0 KECCAK256 PUSH1 0x0 DUP3 DUP2 MSTORE PUSH1 0x20 ADD SWAP1 DUP2 MSTORE PUSH1 0x20 ADD PUSH1 0x0 KECCAK256 PUSH1 0x0 DUP2 SLOAD DUP1 SWAP3 SWAP2 SWAP1 PUSH2 0x291 SWAP1 PUSH2 0x8F3 JUMP JUMPDEST SWAP2 SWAP1 POP SSTORE POP PUSH1 0x0 JUMPDEST PUSH1 0x3 DUP2 LT ISZERO PUSH2 0x301 JUMPI PUSH1 0x9 PUSH1 0x0 PUSH1 0x7 SLOAD DUP2 MSTORE PUSH1 0x20 ADD SWAP1 DUP2 MSTORE PUSH1 0x20 ADD PUSH1 0x0 KECCAK256 PUSH1 0x0 PUSH1 0x1 DUP4 PUSH2 0x2C6 SWAP2 SWAP1 PUSH2 0x861 JUMP JUMPDEST DUP2 MSTORE PUSH1 0x20 ADD SWAP1 DUP2 MSTORE PUSH1 0x20 ADD PUSH1 0x0 KECCAK256 SLOAD PUSH1 0x4 DUP3 PUSH1 0x3 DUP2 LT PUSH2 0x2E9 JUMPI PUSH2 0x2E8 PUSH2 0x96B JUMP JUMPDEST JUMPDEST ADD DUP2 SWAP1 SSTORE POP DUP1 DUP1 PUSH2 0x2F9 SWAP1 PUSH2 0x8F3 JUMP JUMPDEST SWAP2 POP POP PUSH2 0x299 JUMP JUMPDEST POP POP JUMP JUMPDEST PUSH2 0x30D PUSH2 0x609 JUMP JUMPDEST PUSH1 0x0 DUP1 SLOAD SWAP1 PUSH2 0x100 EXP SWAP1 DIV PUSH20 0xFFFFFFFFFFFFFFFFFFFFFFFFFFFFFFFFFFFFFFFF AND PUSH20 0xFFFFFFFFFFFFFFFFFFFFFFFFFFFFFFFFFFFFFFFF AND CALLER PUSH20 0xFFFFFFFFFFFFFFFFFFFFFFFFFFFFFFFFFFFFFFFF AND EQ PUSH2 0x39B JUMPI PUSH1 0x40 MLOAD PUSH32 0x8C379A000000000000000000000000000000000000000000000000000000000 DUP2 MSTORE PUSH1 0x4 ADD PUSH2 0x392 SWAP1 PUSH2 0x7A8 JUMP JUMPDEST PUSH1 0x40 MLOAD DUP1 SWAP2 SUB SWAP1 REVERT JUMPDEST PUSH1 0x0 DUP1 SLOAD SWAP1 PUSH2 0x100 EXP SWAP1 DIV PUSH20 0xFFFFFFFFFFFFFFFFFFFFFFFFFFFFFFFFFFFFFFFF AND PUSH20 0xFFFFFFFFFFFFFFFFFFFFFFFFFFFFFFFFFFFFFFFF AND CALLER PUSH20 0xFFFFFFFFFFFFFFFFFFFFFFFFFFFFFFFFFFFFFFFF AND EQ PUSH2 0x429 JUMPI PUSH1 0x40 MLOAD PUSH32 0x8C379A000000000000000000000000000000000000000000000000000000000 DUP2 MSTORE PUSH1 0x4 ADD PUSH2 0x420 SWAP1 PUSH2 0x7A8 JUMP JUMPDEST PUSH1 0x40 MLOAD DUP1 SWAP2 SUB SWAP1 REVERT JUMPDEST PUSH1 0x4 PUSH1 0x3 DUP1 PUSH1 0x20 MUL PUSH1 0x40 MLOAD SWAP1 DUP2 ADD PUSH1 0x40 MSTORE DUP1 SWAP3 SWAP2 SWAP1 DUP3 PUSH1 0x3 DUP1 ISZERO PUSH2 0x462 JUMPI PUSH1 0x20 MUL DUP3 ADD SWAP2 JUMPDEST DUP2 SLOAD DUP2 MSTORE PUSH1 0x20 ADD SWAP1 PUSH1 0x1 ADD SWAP1 DUP1 DUP4 GT PUSH2 0x44E JUMPI JUMPDEST POP POP POP POP POP SWAP1 POP SWAP1 JUMP JUMPDEST PUSH1 0x1 DUP2 PUSH1 0x3 DUP2 LT PUSH2 0x47C JUMPI PUSH1 0x0 DUP1 REVERT JUMPDEST ADD PUSH1 0x0 SWAP2 POP SWAP1 POP SLOAD DUP2 JUMP JUMPDEST PUSH2 0x48F PUSH2 0x609 JUMP JUMPDEST PUSH1 0x0 DUP1 SLOAD SWAP1 PUSH2 0x100 EXP SWAP1 DIV PUSH20 0xFFFFFFFFFFFFFFFFFFFFFFFFFFFFFFFFFFFFFFFF AND PUSH20 0xFFFFFFFFFFFFFFFFFFFFFFFFFFFFFFFFFFFFFFFF AND CALLER PUSH20 0xFFFFFFFFFFFFFFFFFFFFFFFFFFFFFFFFFFFFFFFF AND EQ PUSH2 0x51D JUMPI PUSH1 0x40 MLOAD PUSH32 0x8C379A000000000000000000000000000000000000000000000000000000000 DUP2 MSTORE PUSH1 0x4 ADD PUSH2 0x514 SWAP1 PUSH2 0x7A8 JUMP JUMPDEST PUSH1 0x40 MLOAD DUP1 SWAP2 SUB SWAP1 REVERT JUMPDEST PUSH1 0x7 PUSH1 0x0 DUP2 SLOAD DUP1 SWAP3 SWAP2 SWAP1 PUSH2 0x530 SWAP1 PUSH2 0x8F3 JUMP JUMPDEST SWAP2 SWAP1 POP SSTORE POP PUSH1 0x0 JUMPDEST PUSH1 0x3 DUP2 LT ISZERO PUSH2 0x56F JUMPI PUSH1 0x0 PUSH1 0x4 DUP3 PUSH1 0x3 DUP2 LT PUSH2 0x557 JUMPI PUSH2 0x556 PUSH2 0x96B JUMP JUMPDEST JUMPDEST ADD DUP2 SWAP1 SSTORE POP DUP1 DUP1 PUSH2 0x567 SWAP1 PUSH2 0x8F3 JUMP JUMPDEST SWAP2 POP POP PUSH2 0x538 JUMP JUMPDEST POP PUSH1 0x4 PUSH1 0x3 DUP1 PUSH1 0x20 MUL PUSH1 0x40 MLOAD SWAP1 DUP2 ADD PUSH1 0x40 MSTORE DUP1 SWAP3 SWAP2 SWAP1 DUP3 PUSH1 0x3 DUP1 ISZERO PUSH2 0x5A9 JUMPI PUSH1 0x20 MUL DUP3 ADD SWAP2 JUMPDEST DUP2 SLOAD DUP2 MSTORE PUSH1 0x20 ADD SWAP1 PUSH1 0x1 ADD SWAP1 DUP1 DUP4 GT PUSH2 0x595 JUMPI JUMPDEST POP POP POP POP POP SWAP1 POP SWAP1 JUMP JUMPDEST PUSH1 0x0 DUP1 PUSH1 0x0 SWAP1 POP JUMPDEST PUSH1 0x3 DUP2 LT ISZERO PUSH2 0x5FE JUMPI DUP3 PUSH1 0x1 DUP3 PUSH1 0x3 DUP2 LT PUSH2 0x5D9 JUMPI PUSH2 0x5D8 PUSH2 0x96B JUMP JUMPDEST JUMPDEST ADD SLOAD EQ ISZERO PUSH2 0x5EB JUMPI PUSH1 0x1 SWAP2 POP POP PUSH2 0x604 JUMP JUMPDEST DUP1 DUP1 PUSH2 0x5F6 SWAP1 PUSH2 0x8F3 JUMP JUMPDEST SWAP2 POP POP PUSH2 0x5BB JUMP JUMPDEST POP PUSH1 0x0 SWAP1 POP JUMPDEST SWAP2 SWAP1 POP JUMP JUMPDEST PUSH1 0x40 MLOAD DUP1 PUSH1 0x60 ADD PUSH1 0x40 MSTORE DUP1 PUSH1 0x3 SWAP1 PUSH1 0x20 DUP3 MUL DUP1 CALLDATASIZE DUP4 CALLDATACOPY DUP1 DUP3 ADD SWAP2 POP POP SWAP1 POP POP SWAP1 JUMP JUMPDEST PUSH1 0x0 DUP2 CALLDATALOAD SWAP1 POP PUSH2 0x63A DUP2 PUSH2 0xA1A JUMP JUMPDEST SWAP3 SWAP2 POP POP JUMP JUMPDEST PUSH1 0x0 PUSH1 0x20 DUP3 DUP5 SUB SLT ISZERO PUSH2 0x656 JUMPI PUSH2 0x655 PUSH2 0x99A JUMP JUMPDEST JUMPDEST PUSH1 0x0 PUSH2 0x664 DUP5 DUP3 DUP6 ADD PUSH2 0x62B JUMP JUMPDEST SWAP2 POP POP SWAP3 SWAP2 POP POP JUMP JUMPDEST PUSH1 0x0 PUSH2 0x679 DUP4 DUP4 PUSH2 0x754 JUMP JUMPDEST PUSH1 0x20 DUP4 ADD SWAP1 POP SWAP3 SWAP2 POP POP JUMP JUMPDEST PUSH2 0x68E DUP2 PUSH2 0x8B7 JUMP JUMPDEST DUP3 MSTORE POP POP JUMP JUMPDEST PUSH2 0x69D DUP2 PUSH2 0x82D JUMP JUMPDEST PUSH2 0x6A7 DUP2 DUP5 PUSH2 0x845 JUMP JUMPDEST SWAP3 POP PUSH2 0x6B2 DUP3 PUSH2 0x823 JUMP JUMPDEST DUP1 PUSH1 0x0 JUMPDEST DUP4 DUP2 LT ISZERO PUSH2 0x6E3 JUMPI DUP2 MLOAD PUSH2 0x6CA DUP8 DUP3 PUSH2 0x66D JUMP JUMPDEST SWAP7 POP PUSH2 0x6D5 DUP4 PUSH2 0x838 JUMP JUMPDEST SWAP3 POP POP PUSH1 0x1 DUP2 ADD SWAP1 POP PUSH2 0x6B6 JUMP JUMPDEST POP POP POP POP POP POP JUMP JUMPDEST PUSH1 0x0 PUSH2 0x6F8 PUSH1 0xF DUP4 PUSH2 0x850 JUMP JUMPDEST SWAP2 POP PUSH2 0x703 DUP3 PUSH2 0x99F JUMP JUMPDEST PUSH1 0x20 DUP3 ADD SWAP1 POP SWAP2 SWAP1 POP JUMP JUMPDEST PUSH1 0x0 PUSH2 0x71B PUSH1 0x10 DUP4 PUSH2 0x850 JUMP JUMPDEST SWAP2 POP PUSH2 0x726 DUP3 PUSH2 0x9C8 JUMP JUMPDEST PUSH1 0x20 DUP3 ADD SWAP1 POP SWAP2 SWAP1 POP JUMP JUMPDEST PUSH1 0x0 PUSH2 0x73E PUSH1 0x14 DUP4 PUSH2 0x850 JUMP JUMPDEST SWAP2 POP PUSH2 0x749 DUP3 PUSH2 0x9F1 JUMP JUMPDEST PUSH1 0x20 DUP3 ADD SWAP1 POP SWAP2 SWAP1 POP JUMP JUMPDEST PUSH2 0x75D DUP2 PUSH2 0x8E9 JUMP JUMPDEST DUP3 MSTORE POP POP JUMP JUMPDEST PUSH2 0x76C DUP2 PUSH2 0x8E9 JUMP JUMPDEST DUP3 MSTORE POP POP JUMP JUMPDEST PUSH1 0x0 PUSH1 0x20 DUP3 ADD SWAP1 POP PUSH2 0x787 PUSH1 0x0 DUP4 ADD DUP5 PUSH2 0x685 JUMP JUMPDEST SWAP3 SWAP2 POP POP JUMP JUMPDEST PUSH1 0x0 PUSH1 0x60 DUP3 ADD SWAP1 POP PUSH2 0x7A2 PUSH1 0x0 DUP4 ADD DUP5 PUSH2 0x694 JUMP JUMPDEST SWAP3 SWAP2 POP POP JUMP JUMPDEST PUSH1 0x0 PUSH1 0x20 DUP3 ADD SWAP1 POP DUP2 DUP2 SUB PUSH1 0x0 DUP4 ADD MSTORE PUSH2 0x7C1 DUP2 PUSH2 0x6EB JUMP JUMPDEST SWAP1 POP SWAP2 SWAP1 POP JUMP JUMPDEST PUSH1 0x0 PUSH1 0x20 DUP3 ADD SWAP1 POP DUP2 DUP2 SUB PUSH1 0x0 DUP4 ADD MSTORE PUSH2 0x7E1 DUP2 PUSH2 0x70E JUMP JUMPDEST SWAP1 POP SWAP2 SWAP1 POP JUMP JUMPDEST PUSH1 0x0 PUSH1 0x20 DUP3 ADD SWAP1 POP DUP2 DUP2 SUB PUSH1 0x0 DUP4 ADD MSTORE PUSH2 0x801 DUP2 PUSH2 0x731 JUMP JUMPDEST SWAP1 POP SWAP2 SWAP1 POP JUMP JUMPDEST PUSH1 0x0 PUSH1 0x20 DUP3 ADD SWAP1 POP PUSH2 0x81D PUSH1 0x0 DUP4 ADD DUP5 PUSH2 0x763 JUMP JUMPDEST SWAP3 SWAP2 POP POP JUMP JUMPDEST PUSH1 0x0 DUP2 SWAP1 POP SWAP2 SWAP1 POP JUMP JUMPDEST PUSH1 0x0 PUSH1 0x3 SWAP1 POP SWAP2 SWAP1 POP JUMP JUMPDEST PUSH1 0x0 PUSH1 0x20 DUP3 ADD SWAP1 POP SWAP2 SWAP1 POP JUMP JUMPDEST PUSH1 0x0 DUP2 SWAP1 POP SWAP3 SWAP2 POP POP JUMP JUMPDEST PUSH1 0x0 DUP3 DUP3 MSTORE PUSH1 0x20 DUP3 ADD SWAP1 POP SWAP3 SWAP2 POP POP JUMP JUMPDEST PUSH1 0x0 PUSH2 0x86C DUP3 PUSH2 0x8E9 JUMP JUMPDEST SWAP2 POP PUSH2 0x877 DUP4 PUSH2 0x8E9 JUMP JUMPDEST SWAP3 POP DUP3 PUSH32 0xFFFFFFFFFFFFFFFFFFFFFFFFFFFFFFFFFFFFFFFFFFFFFFFFFFFFFFFFFFFFFFFF SUB DUP3 GT ISZERO PUSH2 0x8AC JUMPI PUSH2 0x8AB PUSH2 0x93C JUMP JUMPDEST JUMPDEST DUP3 DUP3 ADD SWAP1 POP SWAP3 SWAP2 POP POP JUMP JUMPDEST PUSH1 0x0 PUSH2 0x8C2 DUP3 PUSH2 0x8C9 JUMP JUMPDEST SWAP1 POP SWAP2 SWAP1 POP JUMP JUMPDEST PUSH1 0x0 PUSH20 0xFFFFFFFFFFFFFFFFFFFFFFFFFFFFFFFFFFFFFFFF DUP3 AND SWAP1 POP SWAP2 SWAP1 POP JUMP JUMPDEST PUSH1 0x0 DUP2 SWAP1 POP SWAP2 SWAP1 POP JUMP JUMPDEST PUSH1 0x0 PUSH2 0x8FE DUP3 PUSH2 0x8E9 JUMP JUMPDEST SWAP2 POP PUSH32 0xFFFFFFFFFFFFFFFFFFFFFFFFFFFFFFFFFFFFFFFFFFFFFFFFFFFFFFFFFFFFFFFF DUP3 EQ ISZERO PUSH2 0x931 JUMPI PUSH2 0x930 PUSH2 0x93C JUMP JUMPDEST JUMPDEST PUSH1 0x1 DUP3 ADD SWAP1 POP SWAP2 SWAP1 POP JUMP JUMPDEST PUSH32 0x4E487B7100000000000000000000000000000000000000000000000000000000 PUSH1 0x0 MSTORE PUSH1 0x11 PUSH1 0x4 MSTORE PUSH1 0x24 PUSH1 0x0 REVERT JUMPDEST PUSH32 0x4E487B7100000000000000000000000000000000000000000000000000000000 PUSH1 0x0 MSTORE PUSH1 0x32 PUSH1 0x4 MSTORE PUSH1 0x24 PUSH1 0x0 REVERT JUMPDEST PUSH1 0x0 DUP1 REVERT JUMPDEST PUSH32 0x7573696E67206F6E6C796F6E7765720000000000000000000000000000000000 PUSH1 0x0 DUP3 ADD MSTORE POP JUMP JUMPDEST PUSH32 0x796F7520616C726561647920766F746500000000000000000000000000000000 PUSH1 0x0 DUP3 ADD MSTORE POP JUMP JUMPDEST PUSH32 0x796F752063616E20766F746520312C20322C2033000000000000000000000000 PUSH1 0x0 DUP3 ADD MSTORE POP JUMP JUMPDEST PUSH2 0xA23 DUP2 PUSH2 0x8E9 JUMP JUMPDEST DUP2 EQ PUSH2 0xA2E JUMPI PUSH1 0x0 DUP1 REVERT JUMPDEST POP JUMP INVALID LOG2 PUSH5 0x6970667358 0x22 SLT KECCAK256 0x28 0xC0 DUP11 JUMPI 0x4B 0xBC XOR PUSH24 0xB17BBA5FE68AC0EC19DBA6762546F29A28D06481B65BCA74 PUSH5 0x736F6C6343 STOP ADDMOD SMOD STOP CALLER "
				},
				"gasEstimates": {
					"creation": {
						"codeDepositCost": "532600",
						"executionCost": "infinite",
						"totalCost": "infinite"
					},
					"external": {
						"checkVoteCount()": "infinite",
						"owner()": "2489",
						"resultVote()": "infinite",
						"toVote(uint256)": "infinite",
						"voteArray(uint256)": "infinite"
					},
					"internal": {
						"isvalidVote(uint256)": "infinite"
					}
				},
				"methodIdentifiers": {
					"checkVoteCount()": "b520c9a5",
					"owner()": "8da5cb5b",
					"resultVote()": "fbfadb11",
					"toVote(uint256)": "a1cec4ca",
					"voteArray(uint256)": "db46e82b"
				}
			},
			"storageLayout": {
				"storage": [
					{
						"astId": 3,
						"contract": "vote.sol:vote",
						"label": "owner",
						"offset": 0,
						"slot": "0",
						"type": "t_address"
					},
					{
						"astId": 20,
						"contract": "vote.sol:vote",
						"label": "voteArray",
						"offset": 0,
						"slot": "1",
						"type": "t_array(t_uint256)3_storage"
					},
					{
						"astId": 24,
						"contract": "vote.sol:vote",
						"label": "voteCountArray",
						"offset": 0,
						"slot": "4",
						"type": "t_array(t_uint256)3_storage"
					},
					{
						"astId": 27,
						"contract": "vote.sol:vote",
						"label": "_initial",
						"offset": 0,
						"slot": "7",
						"type": "t_uint256"
					},
					{
						"astId": 33,
						"contract": "vote.sol:vote",
						"label": "vnum",
						"offset": 0,
						"slot": "8",
						"type": "t_mapping(t_uint256,t_mapping(t_address,t_uint256))"
					},
					{
						"astId": 39,
						"contract": "vote.sol:vote",
						"label": "vcount",
						"offset": 0,
						"slot": "9",
						"type": "t_mapping(t_uint256,t_mapping(t_uint256,t_uint256))"
					}
				],
				"types": {
					"t_address": {
						"encoding": "inplace",
						"label": "address",
						"numberOfBytes": "20"
					},
					"t_array(t_uint256)3_storage": {
						"base": "t_uint256",
						"encoding": "inplace",
						"label": "uint256[3]",
						"numberOfBytes": "96"
					},
					"t_mapping(t_address,t_uint256)": {
						"encoding": "mapping",
						"key": "t_address",
						"label": "mapping(address => uint256)",
						"numberOfBytes": "32",
						"value": "t_uint256"
					},
					"t_mapping(t_uint256,t_mapping(t_address,t_uint256))": {
						"encoding": "mapping",
						"key": "t_uint256",
						"label": "mapping(uint256 => mapping(address => uint256))",
						"numberOfBytes": "32",
						"value": "t_mapping(t_address,t_uint256)"
					},
					"t_mapping(t_uint256,t_mapping(t_uint256,t_uint256))": {
						"encoding": "mapping",
						"key": "t_uint256",
						"label": "mapping(uint256 => mapping(uint256 => uint256))",
						"numberOfBytes": "32",
						"value": "t_mapping(t_uint256,t_uint256)"
					},
					"t_mapping(t_uint256,t_uint256)": {
						"encoding": "mapping",
						"key": "t_uint256",
						"label": "mapping(uint256 => uint256)",
						"numberOfBytes": "32",
						"value": "t_uint256"
					},
					"t_uint256": {
						"encoding": "inplace",
						"label": "uint256",
						"numberOfBytes": "32"
					}
				}
			},
			"userdoc": {
				"kind": "user",
				"methods": {},
				"version": 1
			}
		}
	}
}